:020000040808EA
:100000000000080820790808000006000A00050121
:080010000402DE0500000000FF
:04001800746D0808F3
:1000200009480A4908B5884205D0094A824202D0E7
:10003000121A04F075FC0748074A0021121A04F04E
:100040007AFC064808BD00BF00000020B47608080E
:100050004402002044020020400A0020400A002000
:1000600070B502F009FF074B074C1E46E41AA408BE
:100070000025A54204D056F8253098470135F8E709
:1000800070BD00BF6C760808AC76080800F064BA52
:1000900008B500F0DBF8BDE8084002F0AFBE01F0A3
:1000A000D9BC01F0DFBC0078B0FA80F0400970479D
:1000B00001230370704737B505469DF81840234368
:1000C0008DF800303C2301F0EDFE284603B030BD32
:1000D00010B501F081FA064C2368C01AB0F57A7F9A
:1000E00004D901F079FA2060012010BD002010BD74
:1000F0005C02002008B5FFF7EBFF18B1BDE808402F
:10010000FFF7E6BF01F026FCF5E738B504680546C1
:100110007CB16368013B63605BB9236820469B68E0
:100120009847A368013BA3601BB923682046DB689E
:100130009847284638BD000030B5124D95B0FFF7FE
:10014000D9FF11492A782C2303FB02120F4C00928D
:1001500020780F4A03FB0013402104A801F09AFC09
:100160002B78002223700B4B0B491B7802A88DF8CB
:10017000002004AAFFF79FFF03A8FFF7C6FF15B0F2
:1001800030BD00BF700200200100002048020020A6
:10019000F46D080871020020096E0808F0B51C4DC6
:1001A000ADF5077D00242B781A4A1B4906A81B4E83
:1001B0008DF80040FFF77FFF07A8FFF7A6FF304646
:1001C00001F0E2F80746304601F0E4F803F0DCFB0A
:1001D000CDE90201384603F0D7FB114ACDE9000111
:1001E0004FF4007106A801F055FC2B7806AA0D49C2
:1001F00004A88DF80040FFF75EFF05A8FFF785FF14
:10020000FFF778FF084B01221A700DF5077DF0BD4E
:10021000710200200F6E08082D6E08089002002061
:100220003E6E08087E6E08085902002008B5064890
:1002300001F024F9044801F0FBF818B1BDE80840CA
:10024000FFF7ACBF08BD00BF9002002070B5A84CFE
:100250008CB02378013B052B00F24881DFE813F0D6
:10026000060033005100BC00DE000601A14B1A78E5
:100270001D462AB1A04B1B78012B01D0FFF75CFF74
:1002800001F070FB20B19D4801F0F8F802232370C3
:1002900001F0A2F99A4C2368C01A41F288339842BF
:1002A00040F2248101F098F92060FFF723FF2B78BA
:1002B000002B00F01B81934B00221B7892498DF894
:1002C0000020924AA3E08B4B1B782BB18A4B1B7802
:1002D000022B01D0FFF730FF1021884801F0E8F829
:1002E000002840F00181874B894A1B7889498DF8A5
:1002F000000008A8FFF7DFFE09A8FFF706FF0623A6
:10030000F3E07C4B1B782BB17B4B1B78032B01D08C
:10031000FFF712FF7B4D00262B787F4A7F4908A804
:100320008DF80060FFF7C7FE09A8FFF7EEFE02F0A8
:100330006DFB0C2805D101F015FB10B1304601F022
:1003400021FB6E4801F074F80A22014608A802F069
:100350002BFA00222B7872498DF8002006A8089A03
:10036000FFF7A9FE07A8FFF7D0FE08A802F0C4F91E
:10037000624801F083F8614801F05AF818B95F4803
:1003800001F00EF8F7E75D4801F052F80A22014645
:1003900008A802F009FA00222B7862498DF80020A3
:1003A00006A8089AFFF787FE07A8FFF7AEFE08A881
:1003B00002F0A2F9514801F03BF8054618B1FFF7E9
:1003C00035FF042391E0FFF795FE4E4B564A1B780C
:1003D00050498DF800501AE0464B1A781D462AB154
:1003E000454B1B78042B01D0FFF7A6FE4F4B1B7823
:1003F000002B7BD1062323702C78002C76D1FFF7BD
:1004000079FE404B4A4A4B491B788DF8004008A8BA
:10041000FFF751FE09A8FFF778FE67E0354B1B7820
:100420002BB1354B1B78052B01D0FFF785FE01F072
:10043000D3F8414B1B68C01A47F22F53984255D945
:10044000FFF758FE2F4B00221B783C498DF8002007
:1004500008A83B4AFFF72FFE09A8FFF756FE4FF406
:10046000FA6001F037FB02F0FCF93FE0214B1B780A
:100470002BB1214B1B78062B01D0FFF75DFE314BD2
:1004800011221B68ADF81620029301224FF461532C
:100490008DE80C000DF116010DF1150308A88DF87B
:1004A000152002F0F9F9154801F008F8264DC0F3BF
:1004B00080102860FFF71EFE0A22296808A802F0B3
:1004C00073F9104B00221B7820498DF8002006A8F4
:1004D000089AFFF7F0FD07A8FFF717FE08A802F03B
:1004E0000BF9064800F0CAFF032323700CB070BD5F
:1004F000700200200000002048020020900200202E
:10050000A002002071020020AC6E0808956E080859
:10051000B36E0808CB6E0808D16E0808DF6E0808B5
:10052000EF6E0808FF6E08080A6F080859020020DD
:10053000186F0808096E08088C0200204E6F080822
:10054000366F08087802002074020020546F0808F3
:100550000023042201F0F6B908B515491548FFF744
:10056000F7FF15491548FFF7F3FF15491548FFF741
:10057000EFFF15491548FFF7EBFF15491548FFF741
:10058000E7FF154800F0EEFE134800F00FFF124899
:1005900000F064FF4421114800F0D7FF20B902F0B9
:1005A0003DFB0F4901F0B1FF0E4B01221A7008BD4F
:1005B0007C020020706F080849020020766F08084E
:1005C000886D0808826F0808600200208A6F08089A
:1005D000A4020020916F08089002002094020020DD
:1005E000996F08087002002038B50E4B01241C607A
:1005F0000D4B0E4D1C7001F007F80D4800F082FF06
:100600000021284601F0DCFD0A490B4A284602F089
:1006100069FD0A4800F0A5FE2046BDE838400021EB
:1006200001F052B97802002071020020B4020020CB
:1006300094020020DF2108084402002090020020DC
:1006400070B590F84A5004460DB1002070BDC06CE2
:1006500003681B6998470028F7D0E06C03685B6962
:100660009847C0B20A28144B144A16D11978146856
:10067000C9B265541668124D124C1349AE4214BFEC
:100680000C600E604FF000011970104908BF146033
:100690004FF0010418BF15600C7014681A78D2B2BC
:1006A000511CC9B21970A0541B78772B82BF024B22
:1006B00077221A7070BD00BFC0020020BC0200206B
:1006C000C102002039030020B4030020B103002040
:1006D000154A00231370154A15491370154AC3644F
:1006E00011601549154A80F84A30116080F83D3094
:1006F00080F83C3043710371C370837043700370A2
:1007000080F83A3080F8393080F8383080F83B3063
:10071000C380002343630363C36283624362036253
:10072000C3608360704700BFB1030020C002002097
:10073000C1020020BC02002039030020B4030020C5
:1007400038B50D46FFF7C4FFC56438BD08B5C06CA9
:1007500002F0CCF9BDE808400A2001F0BBB9C06C3A
:1007600001F0D3BE014B1878704700BFB1030020E1
:10077000024B00221A70024B18687047B103002028
:10078000B40300202F290AD9392901D8303904E0CF
:10079000A1F14103052B02D83739C8B270470020B8
:1007A000704700002DE9FF47044608460D4604F057
:1007B0002EF9071FEB5D2A2B19D12E1816F8031CF2
:1007C0002046FFF7DFFF000182B216F8021C204628
:1007D000FFF7D8FF104480B202239F4204D9EA5C9D
:1007E00001335040DBB2F8E708B10020E8E2B64937
:1007F000284604F03CF930B9B449284604F037F9EA
:10080000002800F073812C21284604F0C5F8451C0F
:10081000284603F06FFF03F003FC064603F04AFF8F
:1008200042F21072B0FBF2F3237002FB1303642751
:10083000B3FBF7F36370B0FBF7F307FB1300A07093
:10084000304603F0A1F80022A14B02F0B7FDA14B06
:10085000002203F0EDF803F0C3FB2C21E0802846D2
:1008600004F09AF8437805462C2B00F1010653D08A
:100870003146022201A804F0E7F84FF0000A0DF11A
:10088000100901A809F80AAD03F03BFF924BE91CDF
:1008900003FB00F80222AE1D01A804F0D5F80422E3
:1008A0003146484604F0D0F801A88DF80AA003F0BC
:1008B00028FF32254543032095FBF0F5874808EBD8
:1008C0000503236198FBF0F003F0B4FC8046284652
:1008D00003F0B0FC824903F001FD0146404603F0FD
:1008E000F5FB8049A060804603F0ACFD03F0BCFE40
:1008F0000546784303F09EFC0146404603F0E4FBC6
:10090000794903F09FFD0746284603F093FC014612
:10091000384603F0DBFBA0612C21304604F03CF8A4
:1009200003465A7801302C2A10D0532A02BFA269FC
:1009300002F10042A2615B784E2B05D0532B03D00D
:100940002C2B7FF452AF002384F838302C2104F094
:1009500023F8437805462C2B00F1010651D031468F
:10096000032201A804F070F84FF0000801A88DF8E8
:10097000078003F0C6FE584F291D47430222EE1D93
:1009800001A804F061F8042231460DF1060004F0DC
:100990005BF801A88DF80A8003F0B3FE32254543C9
:1009A000032095FBF0F54D487B19636197FBF0F050
:1009B00003F040FC0746284603F03CFC484903F09E
:1009C0008DFC0146384603F081FB4649E06007464E
:1009D00003F038FD03F048FE05466420684303F049
:1009E00029FC0146384603F06FFB3F4903F02AFD1E
:1009F0000746284603F01EFC0146384603F066FB16
:100A0000E0612C21304603F0C7FF03465A780130DD
:100A10002C2A10D0572A02BFE26902F10042E2619B
:100A20005B78572B05D0452B03D02C2B7FF4DDAE04
:100A3000002384F839302C2103F0AEFF4378451CA5
:100A40002C2B04D0284603F058FE84F83C0028469E
:100A50002C2103F0A1FF4378451C2C2B04D0284601
:100A600003F04BFE84F83D0028462C2103F094FF50
:100A70004378451C2C2B05D0284603F03BFE03F0A1
:100A8000CFFA606328462C2103F086FF4378451C8B
:100A90002C2B05D0284603F02DFE03F0C1FA60622E
:100AA0002C21284603F078FF2C21013003F074FF3D
:100AB00043782C2B00F08381013003F01BFE03F000
:100AC000AFFA20627BE100BFAD6F0808B46F080881
:100AD0000000F03F00408F4080969800A086010003
:100AE0009C53C9360000C84200007042B6492846EF
:100AF00003F0BDFF30B9B549284603F0B8FF002820
:100B00003FF473AE2C21284603F046FF451C2846CF
:100B100003F0F0FD03F084FA064603F0CBFD42F249
:100B20001072B0FBF2F3237002FB13036422B3FBD9
:100B3000F2F36370B0FBF2F302FB1300A0703046D7
:100B400002F022FF0022A24B02F038FCA14B00224F
:100B500002F06EFF03F044FA2C21E080284603F0F7
:100B60001BFF4378412B01D1012303E0562B7FF477
:100B70003CAE002384F83B302C21013003F00CFF05
:100B8000437805462C2B00F1010652D03146022253
:100B900001A803F059FF4FF000090DF1100801A85A
:100BA00008F80A9D03F0ADFD8B4FE91C4743022274
:100BB000AE1D01A803F048FF04223146404603F071
:100BC00043FF01A88DF80A9003F09BFD32254543B1
:100BD000032095FBF0F581487B19236197FBF0F02A
:100BE00003F028FB0746284603F024FB7C4903F06A
:100BF00075FB0146384603F069FA7A49A06007465A
:100C000003F020FC03F030FD05466420684303F048
:100C100011FB0146384603F057FA734903F012FC02
:100C20000746284603F006FB0146384603F04EFA15
:100C3000A0612C21304603F0AFFE03465A78013004
:100C40002C2A10D0532A02BFA26902F10042A261ED
:100C50005B784E2B05D0532B03D02C2B7FF4C5ADE6
:100C6000002384F838302C2103F096FE43780546A3
:100C70002C2B00F1010651D03146032201A803F0CC
:100C8000E3FE4FF0000801A88DF8078003F039FD5E
:100C9000514F291D47430222EE1D01A803F0D4FE47
:100CA000042231460DF1060003F0CEFE01A88DF8B6
:100CB0000A8003F026FD32254543032095FBF0F51D
:100CC00046487B19636197FBF0F003F0B3FA0746DF
:100CD000284603F0AFFA424903F000FB01463846CC
:100CE00003F0F4F93F49E060074603F0ABFB03F083
:100CF000BBFC05466420684303F09CFA0146384675
:100D000003F0E2F9384903F09DFB0746284603F05B
:100D100091FA0146384603F0D9F9E0612C213046BA
:100D200003F03AFE03465A7801302C2A10D0572A95
:100D300002BFE26902F10042E2615B78572B05D005
:100D4000452B03D02C2B7FF450AD002384F8393091
:100D50002C2103F021FE4378451C2C2B05D028467E
:100D600003F0C8FC03F05CF9A06228462C2103F0D4
:100D700013FE4378451C2C2B05D0284603F0BAFC03
:100D800003F04EF9E0622C21284603F005FE43787B
:100D90002C2B14D0013003F0ADFC03F021F942F20A
:100DA0001072B0FBF2F3637102FB13036422B3FB16
:100DB000F2F32371B0FBF2F302FB1300E0700120A9
:100DC00004B0BDE8F08700BFBB6F0808C26F080819
:100DD0000000F03F00408F4080969800A086010000
:100DE0009C53C9360000C8420000704200F00CBCA1
:100DF0007047704738B50C4605462822002120462A
:100E000003F099FD0B220849204603F01DFE002344
:100E10000122E372E260A9696362002321616261D9
:100E2000A361E361236238BD2A70080810B5044647
:100E30002C2102F05CF9204610BD0368C9B29B6802
:100E400018470000064A417702604FF0FF32826186
:100E50008277FF2180F820201122C17742627047FB
:100E60003C7008082DE9F04190F920300546013327
:100E70000F4606D102F016F93946BDE8F04101F0FF
:100E800026BC072600244FF0010895F92000002118
:100E900080B202F050F895F91E0008FA06F13940C8
:100EA00080B202F048F895F92000012180B202F0EA
:100EB00042F895F91F00640080B2E4B202F054F8E1
:100EC00008B144F0010416F1FF36DED22046BDE839
:100ED000F081000008B502F0E5F8012101F090FB77
:100EE00002F0E0F80549012201F0C0FB02F0DAF857
:100EF000BDE80840002101F093BB00BF20A107001E
:100F000070B590F91D30044601330E46154616D1D2
:100F100002F064F8217F01F0E0F902F05FF8036865
:100F200031469B68984702F059F8036829469B6848
:100F3000984702F053F8BDE8704001F0D9B990F934
:100F40002030013301D1FFF7C5FF94F91D000021C6
:100F500080B201F0F0FF06F07F012046FFF782FF2C
:100F600029462046FFF77EFF94F91D00012180B23B
:100F7000BDE8704001F0DFBF38B590F91D30044680
:100F800001330D461CD102F029F894F91C1001F030
:100F9000A8F902F023F8036829469B68984702F0F5
:100FA0001DF801F0A5F902F019F80122217F01F0E6
:100FB00091F902F013F803685B699847C5B21BE02A
:100FC00090F92030013301D1FFF784FF94F91D001F
:100FD000002180B201F0AFFF45F080012046FFF70D
:100FE00041FF00212046FFF73DFF054694F91D0013
:100FF000012180B201F09FFF284638BD38B50D466B
:1010000023210446FFF7B8FF20F0300040EA051224
:10101000D2B22046BDE838402321FFF771BF08B5A2
:101020002321FFF7A9FFC0F3011008BD38B50D4615
:1010300020210446FFF7A0FF00F00F0040EA051250
:10104000D2B22046BDE838402021FFF759BF10B585
:101050000446017790F91D00421C04D101F0BEFF47
:1010600001F004F922E0012180B201F064FF94F95B
:101070001D00012180B201F04DFF94F92000431CB6
:1010800004D102F00FF801F0ABFA0FE0012180B2B9
:1010900001F040FF94F91E00012180B201F03AFFF7
:1010A00094F91F00002180B201F034FF0F21204687
:1010B000FFF762FF332819D1072220462021FFF7CE
:1010C0001FFF20460721FFF7B1FF2046882223217A
:1010D000FFF716FF204610222221FFF711FF2046BE
:1010E00080221F21FFF70CFF012010BD002010BD42
:1010F00038B504460D462F222021FFF701FF0022BC
:1011000021212046FFF7FCFE402222212046FFF746
:10111000F7FE002223212046FFF7F2FE08222421B9
:101120002046FFF7EDFE002225212046FFF7E8FECE
:1011300026212046FFF720FF2A4632212046FFF7CE
:10114000DFFE002233212046FFF7DAFE636A002B20
:101150000BDB0A22204684F828203021FFF7D0FE3E
:1011600031212046FFF708FF06E0002284F82820FE
:1011700030212046FFF7C4FE012038BD38B50446B3
:101180003121FFF7F9FE636A0546002B12DBA08CC4
:1011900001F0EAFE01280DD10A2000F09BFC31216C
:1011A0002046FFF7E9FE94F8282030212046FFF77B
:1011B000A7FEECE7284638BD38B590F91D30044647
:1011C000013342D101F00AFF94F91C1001F089F8B3
:1011D00001F004FFA821FFF730FE01F0FFFE01F04F
:1011E00087F801F0FBFE0622217F01F073F801F081
:1011F000F5FE03685B699847E08001F0EFFE036845
:101200005B699847E38843EA0020E08001F0E6FE4E
:1012100003685B699847208101F0E0FE03685B6921
:101220009847238943EA0020208101F0D7FE036814
:101230005B699847608101F0D1FE03685B6998475C
:10124000638943EA002060813CE090F9203001335B
:1012500001D1FFF73FFE94F91D00002180B201F09B
:101260006AFEE8212046FFF7FDFDFF212046FFF73B
:10127000F9FDFF21E0802046FFF7F4FDE388FF2120
:1012800043EA0020E0802046FFF7ECFDFF212081AB
:101290002046FFF7E7FD2389FF2143EA0020208154
:1012A0002046FFF7DFFDFF2160812046FFF7DAFDD2
:1012B0006389012143EA0020608194F91D0080B216
:1012C00001F039FE2046FFF7AAFE032809D00228C4
:1012D0000AD001280BD0002843F6FC7018BF01206B
:1012E00007E04FF4006004E04FF4805001E041F665
:1012F000FE7002F09FFF0546B4F9060002F09AFF67
:10130000294603F09FF8E060B4F9080002F092FF6C
:10131000294603F097F82061B4F90A0002F08AFF29
:10132000294603F08FF8606138BD70B50C4605465C
:10133000242632460021204603F0FDFA2660AB69E0
:10134000284663600123A36000232361FFF734FF75
:10135000EB6863612B69A3616B69E36170BD00F0A9
:1013600053B9704710B5074C18212046FFF76FFEA0
:1013700020460921FFF75AFE2046BDE81040012112
:10138000FFF73CBEB8030020014B9868704700BFD0
:10139000E4030020014BD868704700BFE40300203D
:1013A000014B93F83D007047E403002038B501215C
:1013B000062001F0AFFD0021062001F0BCFD4FF436
:1013C00016511648FFF7C2F915491448FFF7C7F937
:1013D0004FF4FA7000F07EFB12491048FFF7BFF996
:1013E0004FF4FA7000F076FB0F490C48FFF7B7F99D
:1013F0004FF4FA7000F06EFB0C4D002401F07CFB02
:101400000368295D9B68013498470C2CF6D14FF492
:10141000FA70BDE8384000F05DBB00BFE403002077
:10142000567008088870080899700808350100206F
:1014300070B5094E0021B06803F0E4F8054648B9DC
:101440000021F0684FF0010403F0DCF800B12C46F5
:10145000E0B270BD002070BDE403002038B5064D39
:10146000002401F049FB0368295D9B68013498471B
:101470000C2CF6D1012038BD4101002008B501F047
:101480003BFB03681B69984778B10848FFF7D8F819
:101490000648FFF767F90028F1D00448FFF768F91C
:1014A00001460248FFF77EF9E9E708BDE4030020A2
:1014B0000148FFF71DBE00BFB80300200148FFF739
:1014C0005DBE00BFB803002010B500F09DF801F02C
:1014D00013FB084C01460848FFF732F90C2120465F
:1014E000FFF7B0FC2046BDE81040044A044901F073
:1014F000F9BD00BFB8030020E4030020440200202F
:10150000F30D0808704738B505460C4601F066FD36
:10151000297800F0E2FE01F061FD210AFFF78DFC61
:1015200001F05CFDE1B2FFF788FC01F057FDBDE87A
:10153000384000F0DDBE08B543F2A201FFF7E3FF3B
:10154000BDE808400A2000F0C5BA38B50D4604468B
:1015500001F044FD00F08AFE20462570FFF7EBFF06
:10156000012038BD00F050B808B5024B1B68DB6B9A
:10157000019308BD2000060808B5024B1B685B6C90
:10158000019308BDD001040808B5024B1B689B6C91
:10159000019308BDD001040808B5024B1B68DB6C41
:1015A000019308BDD001040808B5024B1B685B6DB0
:1015B000019308BDD001040808B5024B1B689B6E5F
:1015C000019308BDB801040808B5024B1B685B68AD
:1015D000019308BD9C01040808B5024B1B685B69B8
:1015E000019308BD9C01040808B5024B1B68DB6928
:1015F000019308BD9C01040808B5024B1B689B6D54
:10160000019308BD9C01040808B5024B1B681B68C8
:10161000019308BDB001040808B5024B1B689B6824
:10162000019308BDB001040808B5024B1B68DB68D4
:10163000019308BDB001040808B5024B1B681B6983
:10164000019308BDB001040808B5024B1B685B6933
:10165000019308BDB001040808B5024B1B68DB68A4
:10166000019308BDAC01040808B5024B1B689B69D7
:10167000019308BDAC01040808B5024B1B68DB6987
:10168000019308BDAC01040808B5024B1B681B6A36
:10169000019308BDAC01040808B5024B1B685B6AE6
:1016A000019308BDAC01040808B5024B1B689B6A96
:1016B000019308BDAC01040808B5024B1B68DB6A46
:1016C000019308BDAC01040808B5024B1B681B6BF5
:1016D000019308BDAC01040808B5024B1B685B6BA5
:1016E000019308BDAC01040808B5024B1B681B6CD4
:1016F000019308BDAC01040808B5024B1B689B6C44
:10170000019308BDAC01040808B5024B1B68DB6CF3
:10171000019308BDAC01040808B5024B1B681B6DA2
:10172000019308BDAC01040808B5024B1B681B6897
:10173000019308BDB401040808B5024B1B689B68FF
:10174000019308BDB401040808B5024B1B68DB68AF
:10175000019308BDB401040808B5024B1B681B695E
:10176000019308BDB401040808B5024B1B685B690E
:10177000019308BDB401040808B5024B1B68DB697E
:10178000019308BDB401040808B5024B1B681B6A2D
:10179000019308BDB401040808B5024B1B685B6ADD
:1017A000019308BDB401040808B5024B1B689B698E
:1017B000019308BDC401040808B5024B1B685B6AAD
:1017C000019308BDC401040808B5024B1B689B6A5D
:1017D000019308BDC401040808B5024B1B68DB6A0D
:1017E000019308BDC401040808B5024B1B681B6BBC
:1017F000019308BDC401040808B5024B1B685B6B6C
:10180000019308BDC401040808B5024B1B689B6B1B
:10181000019308BDC401040808B5024B1B681B6C8A
:10182000019308BDC401040808B5024B1B68DB6CBA
:10183000019308BDC401040808B5024B1B681B686E
:10184000019308BD1C00060808B5024B1B681B6904
:10185000019308BD1C00060808B5024B1B685B69B4
:10186000019308BD1C00060808B5024B1B689B6964
:10187000019308BD1C00060808B5024B1B68DB6914
:10188000019308BD1C00060808B5024B1B681B6AC3
:10189000019308BD1C00060808B5024B1B681B68B5
:1018A000019308BDA401040808B5024B1B685B68DE
:1018B000019308BDA401040808B5024B1B685B69CD
:1018C000019308BDA401040808B5024B1B68DB6A3C
:1018D000019308BDA401040808B5024B1B68DB6C2A
:1018E000019308BDA401040808B5024B1B685B6D99
:1018F000019308BDA401040808B5024B1B689B6D49
:10190000019308BDA401040808B5034B1B68D3F874
:101910009030019308BD0000A401040808B5034BF2
:101920001B68D3F89C30019308BD0000A401040893
:1019300008B5034B1B68D3F8A830019308BD00001D
:10194000A401040808B5024B1B681B68019308BD7D
:10195000CC01040808B5024B1B689B68019308BDC5
:10196000CC01040808B5024B1B685B69019308BDF4
:10197000CC01040808B5024B1B681B6A019308BD23
:10198000CC01040808B5024B1B68DB6A019308BD53
:10199000CC01040808B5024B1B681B6B019308BD02
:1019A000CC01040808B5024B1B68DB6B019308BD32
:1019B000CC01040808B5024B1B685B68019308BDA5
:1019C000C801040808B5024B1B689B68019308BD59
:1019D000C801040808B5024B1B68DB68019308BD09
:1019E000C801040808B5024B1B681B69019308BDB8
:1019F000C801040808B5024B1B685B69019308BD68
:101A0000C801040808B5024B1B689B69019308BD17
:101A1000C801040808B5024B1B68DB69019308BDC7
:101A2000C801040808B5024B1B681B6A019308BD76
:101A3000C801040808B5024B1B681B6B019308BD65
:101A4000C801040808B5024B1B685B6B019308BD15
:101A5000C801040808B5024B1B681B68019308BD48
:101A6000A001040808B5024B1B685B68019308BD20
:101A7000A001040808B5024B1B689B68019308BDD0
:101A8000A001040808B5024B1B689B69019308BDBF
:101A9000A001040808B5024B1B68DB69019308BD6F
:101AA000A001040808B5024B1B68DB6A019308BD5E
:101AB000A001040808B5024B1B681B6B019308BD0D
:101AC000A001040808B5024B1B68DB6B019308BD3D
:101AD000A00104080021FFF7EFBE10B5836804469B
:101AE0000BB901F020FBC3689847A3681BB1032220
:101AF0002146204698472046BDE81040102101F0BD
:101B0000F6BA002211464068FFF76CBF2DE9FF418D
:101B1000002604AC054610468846174644F8046D76
:101B200002F075FF009681B2D8F80430224638469C
:101B3000FFF71AFD20B13146284600F023FC03E0F0
:101B40002146284600F016FC284604B0BDE8F08186
:101B5000002211464068FFF765BF00221146406829
:101B6000FFF770BF00224068FFF764BF002281F0DA
:101B700001014068FFF74EBF00231A46194640682E
:101B8000FFF740BF00231A4619464068FFF732BFEF
:101B9000002211464068FFF715BF0022022140686D
:101BA000FFF718BF00231A464068FFF703BF000085
:101BB00038B5084C28252A460021204602F0BBFEF5
:101BC0004FF0FF336360044B04225A60034A2580C0
:101BD0001A6038BD3C04002034040020B0700808AE
:101BE00070470020704710B50446102101F07FFABD
:101BF000204610BD08B508B1FFF7F5FF08BD10B5C8
:101C00008368044613B1032201469847204610BD5D
:101C1000002202604FF69C72828010B5B1F9044038
:101C200084808A8002680C6804600A6010BD10B568
:101C300004460068FFF716FF204610BD38B5C4689B
:101C4000F4B12378022B03D104F10C00FFF7EFFF6E
:101C5000656835B12846FFF7D2FF1021284601F00C
:101C600046FAA56835B12846FFF7C9FF1021284676
:101C700001F03DFA2046BDE83840142101F037BAA2
:101C800038BD13B5044691E8050000234B600B6096
:101C90002060626001A801930093FEF736FA2046A7
:101CA00002B010BD0B68036013B15A6801325A606C
:101CB0007047F7B50C4606460F4654F8043B02AD94
:101CC00045F8083D214601A8FFF7ECFF29463046BC
:101CD000FFF7D7FF01A8FEF718FA2046FEF715FA1E
:101CE0003846082101F003FA304603B0F0BD13B5C1
:101CF0000B46044603C88DE8030093E8030084E81C
:101D000003009DE8030083E8030002B010BD00005B
:101D100038B500230446036010200D46FEF7BFF9D6
:101D200028B1012343608360024BC56003602060DB
:101D3000204638BDE4700808826810B50AB901F081
:101D4000F2F9C368BDE81040184708B5006800F113
:101D50001001FFF7F1FF08BD826810B50AB901F064
:101D6000E2F9C368BDE81040184708B5006800F103
:101D70001001FFF7F1FF08BD38B5002383608B68C1
:101D800004460D462BB102229847EB68E360AB682E
:101D9000A360204638BD0000F0B589B004686846ED
:101DA000FFF736FF4FF0020200238DF80830D4E829
:101DB0004F3F002B03D1C4E8412F0029F7D102D0B7
:101DC0008DF8083063E014F10C0503D0694628460D
:101DD000FFF71EFFBFF35F8F01236370BFF35F8FB9
:101DE00004F10803002053E8006F43E80002002AD2
:101DF000F9D1BFF35F8F002E49D0FFF76DFD20B101
:101E000029463046FFF798FF3AE0314602A8FFF72F
:101E1000B3FFE068B4F9105008B102F0DDFD0690A0
:101E20001020ADF81C50FEF73AF90546E8B100273E
:101E300087601820FEF733F9044688B101468760B1
:101E400002A8FFF754FF049BA268A360059B0492BD
:101E5000E26806A9E36004F110000592FFF7D8FEDE
:101E60000D4B2C60EB600D4BAB6006A8FFF7DFFE5F
:101E700002A8FFF7C4FE002229460948FFF734FDF7
:101E80003046FFF7BCFE1021304601F030F96846BD
:101E9000FFF7CDFE09B0F0BD4B1D0808C11F0808B3
:101EA000DB1A08082DE9F04F8BB006460F46904626
:101EB00099469DF850A0FFF755FD07AD834630BB0E
:101EC0004FF62E73059005A92846ADF81830FFF798
:101ED0009FFE1420FEF7E3F8044658B10223037076
:101EE00001234370C0F804B0C0F808B029460C3094
:101EF000FFF78EFE3046214640F8044BFFF708FFFF
:101F00002846FFF794FE05A8FFF791FE52E0002453
:101F10000C2314206C60AC600793FEF7C0F80146F8
:101F200018B1047044704460846004A80391FFF702
:101F3000EFFE224B08200893FEF7B1F8044628B1C3
:101F4000039B04A940F8043BFFF7ACFE00955FFA41
:101F50008AF34A46414638460994FFF70BFD20B9FB
:101F6000039B5B7803F0FF0283B1039B04A906A8DF
:101F70000593FFF797FE05A93046FFF782FE06A8F6
:101F8000FEF7C3F804A8FEF7C0F813E04FF69C7301
:101F900005A903A80592ADF81830FFF7FDFE05A8C6
:101FA000FFF745FE05A80999FFF783FE06A8FEF78F
:101FB000ACF8DAE730460BB0BDE8F08F3121080805
:101FC000022AF8B5044606D0032A17D0012A22D1E6
:101FD0000B6803601FE018200E68FEF760F80546E6
:101FE00050B13146FFF7C8FE3069B6F9147008B138
:101FF00002F0F2FC2861AF8225600CE0046854B165
:1020000004F11000FFF713FE2046FFF7F8FD18213A
:10201000204601F06CF80020F8BD38B5002383603D
:102020008B6804460D462BB102229847EB68E360AB
:10203000AB68A360204638BD022A70B5044606D0BE
:10204000032A11D0012A18D10B68036015E014206F
:102050000E68FEF724F8054620B13146FFF7DDFF94
:10206000337C2B74256008E0046834B12046FFF708
:10207000C6FD1421204601F03AF8002070BD000092
:10208000F0B50C46BFF35F8F87B0002350E8006FB8
:1020900040E80032002AF9D1BFF35F8F002E3FD015
:1020A0001846FFF719FC074620B121463046FFF7D6
:1020B00053FE2EE0314601A8FFF7AFFF2378102032
:1020C0008DF81430FDF7EBFF0546D0B18760142082
:1020D000FDF7E5FF044678B18760014601A8FFF7E8
:1020E00006FE039BA268A360049B0392E268E36080
:1020F0009DF81430049223740A4B2C60EB600A4B59
:10210000AB6001A8FFF77BFD002229460748FFF7D7
:10211000EBFB3046FFF773FD1021304600F0E7FF80
:1021200007B0F0BD6B1D080839200808DB1A080845
:1021300030B5044685B00D4668461146FFF7B9FD37
:102140007CB124B228460DB102F046FC029002A9EF
:102150006846ADF80C40FFF71FFE02A8FFF767FDC9
:102160001DE04FF0010200988DF80840D0E84F3F85
:10217000A34203D1C0E8412F0029F7D102D08DF846
:1021800008300CE010F10C014FF0010318BF03738D
:10219000BFF35F8F043000F8033CFFF771FF01A825
:1021A000FDF7B3FF05B030BD006800F0A8B810B56A
:1021B0000446016002710AB1FFF7F6FF204610BD28
:1021C00038B504460D4600F02FFF2A46014620464A
:1021D000FFF7EDFF204638BD006800F099B810B554
:1021E000037904460BB1FFF7F7FF204610BD704797
:1021F000F8B5064615460C468F18BC4206D0336823
:1022000014F8011B9B6830469847F6E72846F8BD4E
:102210000022007CFFF738BA0021007CFFF73CBAAF
:102220000021007CFFF740BA0021007CFFF744BA90
:102230000021007CFFF748BA10B50446142100F0D5
:1022400056FF204610BD000010B504460023636011
:102250004FF47A73A360044B21740846236011463F
:10226000FFF742FA204610BD0071080800231A4605
:102270001946007CFFF7F0B970B50C46064686B0EB
:1022800014252A46002101A802F055FB23780022DC
:102290008DF80830636801A90393E368307C0493E8
:1022A000237AADF804500593FFF736FA06B070BDF7
:1022B0001FB500338DF800104FF06401039118BF73
:1022C0000123694601928DF80830FFF7D5FF05B06C
:1022D0005DF804FB0123FFF7EBBF0022007CFFF752
:1022E000C3B9C9B2FFF7F9BF0022007CFFF7C4B938
:1022F0000121FFF7F9BF0021007CFFF7EDB908B518
:102300000021007CFFF7F8F9B0FA80F0400908BD21
:1023100008B50021007CFFF7F7F9B0FA80F040091A
:1023200008BD704710B50446082100F0E0FE2046C5
:1023300010BDF8B50F4600F10806051D002416F87B
:10234000011D0A22384600F0EAF8AE42044407D0E4
:10235000002CF4D02E21384600F0C8F80444EEE7F3
:102360002046F8BD024A026000224260704700BF6A
:1023700028710808024A02600A684260704700BF7C
:1023800028710808014A41600260704728710808F6
:1023900010B59DF8084044EA032343EA024242EAAA
:1023A0000161416010BD000037B5044D05609DF826
:1023B00018500095FFF7ECFF03B030BD28710808F6
:1023C0000068FFF7E9B80000014A024B1A60704745
:1023D000AA7108086404002000231A464068FFF729
:1023E000E9BA002202214068FFF7F4BA0022114640
:1023F0004068FFF7E7BA002211464068FFF7F2BADB
:1024000000231A4619464068FFF7F4BA00231A461B
:1024100019464068FFF7F6BA002281F001014068D2
:10242000FFF7F8BA00224068FFF704BB002211460C
:102430004068FFF707BB002211464068FFF7F2BA79
:10244000F0B5174687B0054604A8FFF78BFF0026B6
:1024500006AC384644F80C6D02F0D9FA0A4B0096E7
:1024600081B25B6822463846FFF77EF820B13146DC
:102470002846FFF787FF03E021462846FFF77AFF4B
:10248000284607B0F0BD00BF34040020024B034AC9
:102490001A6000225A607047680400202072080801
:1024A000F8B506460D468F180024BD420CD033689F
:1024B00015F8011B9B6830469847002801DB04444F
:1024C000F3E7002C08BF04462046F8BD70B505466A
:1024D0000C46084649B102F09AFA2B68024621469A
:1024E0002846BDE87040DB68184770BD03689B68EC
:1024F000184738B50D210546FFF7F8FF0A210446B5
:102500002846FFF7F3FF204438BD38B50546FFF7EE
:10251000DDFF04462846FFF7ECFF204438BD012AC2
:1025200098BF0A2230B50B468BB000218DF82410DD
:102530000DF12304B3FBF2F505FB1233DBB2092BDB
:1025400094BF30333733DBB2214604F801392B46D0
:10255000002DEFD1FFF7BAFF0BB030BD10B5044628
:10256000FFF74DFB204610BD034800238360034A5C
:10257000034900F0B7BD00BF7004002044020020F2
:102580005D25080810B5044B04460360C06808B117
:10259000FEF7FAFF204610BD5472080810B5044635
:1025A000FFF7F0FF2046102100F0A1FD204610BDEE
:1025B0000068FEF7F9BF000070B504460E46074BF1
:1025C0000025036040F80C5FFEF7D6FF3046267109
:1025D000FFF7D2F8A560204670BD00BF547208080E
:1025E00038B5054600F10C042046FFF7E9FE2879CE
:1025F0004FF6FF71FFF798F82046FFF7D9FF38BD77
:1026000070B505460E4600F10C042046FFF7D8FED3
:1026100028793146FFF790F82046FFF7C9FF70BDD3
:1026200070B505460E4600F10C042046FFF7C8FEC3
:1026300028793146FFF788F82046FFF7B9FF70BDCB
:10264000400830B5186000241868E5B2884206D901
:102650000134082C02D040081860F5E70725024B2A
:102660005B5D137030BD00BF5C7208082DE9F0415E
:10267000054600F10C0688B0002402FB01F7304645
:102680000294FFF79DFE95F804802146142203A8CA
:1026900002F051F90B23224603A94046ADF80C3055
:1026A000FFF77AF802AB0DF10702394604988DF86E
:1026B0000740FFF7C5FF9DF807102879FFF74CF892
:1026C0003046FFF775FF029808B0BDE8F08170B59D
:1026D00005460E4600F10C042046FFF771FE314618
:1026E0002879FFF741F805462046FFF761FFE8B279
:1026F00070BD0079FFF748B810B504460068FFF7D1
:10270000B1F9204610BD10B50446006808B1FFF7C6
:10271000A9F900232360A360636010BD38B50446A7
:102720000D4600680131FFF7A5F910B184E82100DA
:10273000012038BD10B50368044613B143688B42CD
:1027400007D22046FFF7EAFF20B1A3680BB9226841
:102750001370012010BD70B50E4611460446154693
:10276000FFF7E8FF18B92046FFF7CDFF09E02A463A
:102770003146A560206802F0D3F82268A3680021E2
:10278000D154204670BD38B505460C4641B10846C7
:1027900002F03DF9214602462846FFF7DCFF01E042
:1027A000FFF7B1FF284638BD10B5044600238AB0B4
:1027B00023606360A3602373084601A900F0C9FA8F
:1027C00001A92046FFF7DFFF20460AB010BD10B573
:1027D0000446006818B1FFF745F90023236010BDD7
:1027E00010B50446FFF7F3FF204610BD38B5B1F928
:1027F00004300D4683800B4653F8062F0446C0F87C
:1028000006209B884381FFF7E2FF2B6813B123600A
:1028100000232B60204638BDB1F9043010B50BB948
:102820000A689AB10C685CB1A288012A03D0042A14
:1028300006D1022205E0A4898A710B814C8105E052
:1028400004220B814FF6FF738A714B8151F8063FCA
:1028500003608B88838010BD014600228C20FEF728
:10286000ABBE0020FFF7F8BF10B500240470448011
:102870004FF6FF740029848007DD0139994209D29F
:1028800032F811308380012301E002D1022303706A
:1028900010BD418010BD0000F0B50E4617468BB04C
:1028A0001A46129B00240193119B05460294009343
:1028B0003946109B3046FFF73BF83B46324601460F
:1028C00005A8FFF7D1FF9DF814100794ADF820403C
:1028D0000C4CBDF91620BDF818308DF8221020469A
:1028E00007A9ADF82420ADF82630FFF77FFF07A831
:1028F000FFF76DFF28462146FFF78EFF28460BB0F5
:10290000F0BD00BF800400204FF6FF7310B5084CE7
:1029100000202060A080A07120816381FEF7C4FFA9
:102920002046BDE81040034A034900F0DBBB00BF6E
:102930008004002044020020E1270808F0B5144B71
:10294000144F1E68144B064418683B6806449E42A8
:102950008BB01BD00AA840F8286D01F0E5FE0446B4
:10296000436901AD03F26C7343610FCC0FC50FCC0B
:102970000FC5D4F800E0094CC5F800E001AD0FCD5B
:102980000FC40FCD0FC43E60C4F800E00BB0F0BD23
:10299000BC040020B8040020B40400208C040020F3
:1029A00008B50020FEF7F6FF28B1FEF7DBFF80F048
:1029B0000100C0B208BD012008BD10B50020FEF71F
:1029C0001BFE044668B9FEF767FF01280BD12046BD
:1029D000FEF792FF38B9FFF7E3FF30B9FEF7BAFF11
:1029E000F9E7012010BD002010BDFFF7D9FF00203E
:1029F000FEF702FE003018BF012010BD08B5FFF73A
:102A0000DCFFBDE80840FEF7EFBD000008B5FFF7AA
:102A1000F5FFFFF793FF014B986808BD8C04002079
:102A2000024B1A68024B1A60704700BF5001002029
:102A3000B004002070474174704708B5007CFEF771
:102A4000EBFE20EAE07008BD08B5007CFEF7BCFE96
:102A500020EAE07008BD08B5007CFEF7C5FE30EA4C
:102A6000200028BF4FF0FF3008BD08B5007CFEF7FE
:102A7000B3FE30EA200028BF4FF0FF3008BD007CD5
:102A8000FEF7BABE10B50446142100F030FB204614
:102A900010BD70B5457C04460E4625B9007CFEF796
:102AA000BBFE002805DD3146207CBDE87040FEF706
:102AB00083BE284670BD000010B504460846114686
:102AC000002262604FF47A72A260054A207422608C
:102AD000012262741A46FEF767FE204610BD00BF51
:102AE000947208080023007CFEF79EBE0022FFF7C8
:102AF000F9BF007CFEF788BE38B50C4D296811F08F
:102B0000010411D12846FDF7CEFA68B1084A2146E2
:102B1000084B0948FFF7D0FF2846FDF7C9FA074AD6
:102B20000749054800F0DEFA034838BD5805002083
:102B30005C050020D4040020C004002044020020D2
:102B4000352A080841747047704708B50021007C99
:102B5000FEF78AFE30EA200028BF4FF0FF3008BDA4
:102B600008B50121007CFEF77FFE30EA200028BF77
:102B70004FF0FF3008BD08B5007CFEF76DFE20EA7F
:102B8000E07008BD08B5007CFEF75EFE20EAE0704C
:102B900008BD007CFEF778BE10B50446142100F095
:102BA000A6FA204610BD38B50446007C0D46FEF757
:102BB00053FE002801DC607C28B12946207CFEF70A
:102BC0005BFE20EAE07038BD10B504460023636068
:102BD0004FF47A73A360054B0846236001232174E8
:102BE00063741146FEF728FE204610BDC472080823
:102BF00010B504461422002101F09DFE054B20462D
:102C00006360054BE36040F201132381812323823B
:102C100010BD00BF65060020E405002030B50E4D54
:102C200087B001A8FFF7E4FF296811F0010410D173
:102C30002846FDF738FA60B101AA21460748FFF798
:102C4000C3FF2846FDF734FA054A0649034800F059
:102C500049FA024807B030BDE005002068070020AF
:102C600044020020492B080810B504461422002114
:102C700001F061FE054B20466360054BE36040F2C6
:102C8000011323818123238210BD00BF1808002077
:102C90008007002010B50E4C86B001A8FFF7E4FFB6
:102CA0002368DB0710D42046FDF7FDF960B101AAC7
:102CB00001210848FFF788FF2046FDF7F9F9064A89
:102CC0000649044800F00EFA024806B010BD00BFE5
:102CD0007C0700200408002044020020492B08083B
:102CE00010B5044601F093FE01382318204698429F
:102CF00006D20278197800F8011B03F80129F6E7DB
:102D000010BD70B50C46911E222920D825462946B3
:102D100010B9234430220EE0B0FBF2F602FB16009D
:102D2000C1B2092805F8011B94BF3031573105F8AD
:102D3000011C3046EBE7994202D201F8012BFAE779
:102D4000002320460B70FFF7CBFF204670BD00200C
:102D500070BD38B5031E0C4615460BDAB3F1004FB3
:102D60004FF02D0214BF5842184601230A702A461C
:102D7000194400E00123FFF7C4FF204638BD0000DE
:102D800008B5184B33B1FFF749FF03681B69984733
:102D900000281EDC144B33B1FFF7AEFE03681B693D
:102DA0009847002818DC114B0BB1AFF30080104B93
:102DB0000BB1AFF300800F4B0BB1AFF300800E4BA4
:102DC0007BB1FFF767FF03681B699847002806DCA3
:102DD00008BDAFF30080DDE7AFF30080E3E7AFF3BA
:102DE000008008BD0000000000000000000000009E
:102DF00000000000000000000000000008B5FFF720
:102E0000BFFFFEF7E9FB014B186008BD2409002055
:102E10000248034A0349121A01F082BD00400240F1
:102E200004400240B076080807B5002300931A4614
:102E30006FF07701FEF772FD03B05DF804FB000050
:102E400007B543880A2B08D0502B09D1094B1B68C2
:102E50003BB103B05DF804EB1847FFF7E5FF06E070
:102E6000002300931A466FF07701FEF757FD03B079
:102E70005DF804FB1C09002038B5104C104D236888
:102E8000AB42104B0CBF012200221A7002D0FFF798
:102E9000BFFF2560FEF798FB044601F055FD0A4B85
:102EA00013B12046AFF3008000210748FEF77AFDFA
:102EB000BDE8384000210548FEF726BD004002402D
:102EC0001E1C279A2009002000000000412E08083F
:102ED00010B5044600F0E6F8FFF70BFC28B1A4F1AA
:102EE0000D03022B01D8002010BD00F077F8FFF78A
:102EF00002FA08B1012CF6D9FFF7FEFDFFF7F9FD44
:102F000018B1A4F11203012BEDD92E2C8CBF002097
:102F1000012010BD2E2838B504460D460AD8FF29D9
:102F200008D0FFF7D5FF28B129462046BDE8384034
:102F3000FEF772BB38BD38B504460D46FEF774FB8C
:102F4000FF2810D0062804D84D2323FA00F0C30729
:102F500009D42046FFF7BCFF28B129462046BDE82A
:102F60003840FEF769BB38BD10B50446FEF75CFB80
:102F70000438C0B2012808D92046FFF7A9FF20B1C4
:102F80002046BDE81040FEF75FBB002010BD0000EA
:102F900070B5044614252A46094E002101F0CBFCE9
:102FA000258020253146A5602561284600F0B9F826
:102FB00031466060284600F0B4F8E060204670BDFD
:102FC000EC72080810B50446FFF7E2FF204610BD7A
:102FD00010B50446FFF7DCFF204610BD30B50E4D9E
:102FE00087B0296811F0010413D12846FDF75BF87A
:102FF00078B101A8FFF7E6FF01AA21460748FFF7CD
:1030000023F92846FDF754F8054A0649034800F01D
:1030100069F8024807B030BD2809002040090020A7
:1030200044020020EF21080810B50E4C86B023683A
:10303000DB0713D42046FDF736F878B101A8FFF777
:10304000C7FF01AA02210848FFF7FEF82046FDF756
:103050002FF8064A0649044800F044F8024806B032
:1030600010BD00BF540900202C090020440200209C
:10307000EF21080813B5084C00231A46194600939F
:103080002046FFF791F92046044A054902B0BDE801
:10309000104000F027B800BF58090020440200206B
:1030A0002323080838B50B4D296811F001040FD10E
:1030B0002846FCF7F8FF58B121460748FFF77CFA8D
:1030C0002846FCF7F5FF054A0549034800F00AF8D1
:1030D000014838BD7009002060090020440200202A
:1030E000852508080B460146184601F00FBBFCF782
:1030F000D8BF0000024B1868BFF35F8F704700BF56
:103100007409002010B5002814BF0446012420468D
:10311000FEF7A0FC20B9FFF7EDFF08B18047F6E706
:1031200010BDFFF7EFBF08B5FEF7BCFC244B1A68D3
:10313000D0075CBF01221A60224B1A68D1075CBF1E
:1031400001221A60204B1A68D2075CBF01221A6064
:103150001E4B1A68D0075CBF01221A601C4B1A680C
:10316000D1075CBF01221A601A4B1A68D2075CBFF4
:1031700001221A60184B1A68D0075CBF01221A603E
:10318000164B1A68D1075CBF01221A60144B1A68EB
:10319000D2075CBF01221A60124B1A68D0075CBFCD
:1031A00001221A60104B1A68D1075CBF01221A6015
:1031B0000E4B1A68D2075CBF01221A60704700BF2D
:1031C000A4090020A00900209C09002098090020E3
:1031D00094090020900900208C0900208809002013
:1031E00084090020800900207C0900207809002043
:1031F000184B1A68D1075CBF01221A60164B1A6877
:10320000D2075CBF01221A60144B1A68D0075CBF5A
:1032100001221A60124B1A68D1075CBF01221A60A2
:10322000104B1A68D2075CBF01221A600E4B1A6855
:10323000D0075CBF01221A600C4B1A68D1075CBF33
:1032400001221A600A4B1A68D2075CBF01221A6079
:10325000704700BFC4090020C0090020BC0900203D
:10326000B8090020B4090020B0090020AC090020F2
:10327000A8090020184B1A68D1075CBF01221A6008
:10328000164B1A68D2075CBF01221A60144B1A68E9
:10329000D0075CBF01221A60124B1A68D1075CBFCD
:1032A00001221A60104B1A68D2075CBF01221A6013
:1032B0000E4B1A68D0075CBF01221A600C4B1A68CB
:1032C000D1075CBF01221A600A4B1A68D2075CBFA3
:1032D00001221A60704700BFE4090020E0090020C5
:1032E000DC090020D8090020D4090020D0090020E2
:1032F000CC090020C8090020244B1A68D0075CBF05
:1033000001221A60224B1A68D1075CBF01221A60A1
:10331000204B1A68D2075CBF01221A601E4B1A6844
:10332000D0075CBF01221A601C4B1A68D1075CBF32
:1033300001221A601A4B1A68D2075CBF01221A6078
:10334000184B1A68D0075CBF01221A60164B1A6826
:10335000D1075CBF01221A60144B1A68D2075CBF08
:1033600001221A60124B1A68D0075CBF01221A6052
:10337000104B1A68D1075CBF01221A600E4B1A6805
:10338000D2075CBF01221A60704700BF140A0020F8
:10339000100A00200C0A0020080A0020040A00205D
:1033A000000A0020FC090020F8090020F409002090
:1033B000F0090020EC090020E80900202DE9F04F79
:1033C0008BB01D4680468946144600F059F82A4BBA
:1033D000064693F900A00F46BAF1FF3F2FD02246D0
:1033E0002B462046294600F0BDFD40BB42464B46D9
:1033F0004046494600F0B6FD834600BB002200234C
:103400002046294600F07CFDC8B11C4A0123CDE9C5
:103410000289CDE90445CDF820B001920093BAF1BC
:10342000000F11D1CDE90689684600F047F9B0B127
:10343000089BDBB9DDE906010BB0BDE8F08F304633
:1034400039460BB0BDE8F08F002200231046194624
:1034500000F018FCBAF1020FCDE90601E4D1FEF745
:1034600031FB21230360089B002BE3D0FEF72AFBEE
:10347000089B0360DEE700BF54010020F0720808DB
:103480002DE9F84F23F0004952EA090620D001F057
:103490000046834F81EA0608B84519DC57421743B6
:1034A000DFF814B249EAD7775F45944610D8C8458B
:1034B0001D4682460446964612DC0FDB90420DD331
:1034C0000ED1784BF60F03EBC60393E8030005E03B
:1034D00000F0AEFA02460B4600F0D4FBBDE8F88FD0
:1034E000B8F5801F0EDAB8F1000F40F09C80BAF1F9
:1034F000000F53466C4909DD5B00002B01F1FF31E1
:10350000FADC03E04FEA2851A1F2FF31B9F5801F40
:103510000EDAB9F1000F40F09F80BCF1000F634656
:10352000614F09DD5B00002B07F1FF37FADC03E098
:103530004FEA2957A7F2FF375C4B994256DBC8F395
:10354000130343F48013594A97425EDBC5F3130516
:1035500045F48015C91B07E052EA000313D0C30FDE
:1035600003EB420344000139CEEB04005A1B89B13E
:10357000744538BF02F1FF32002AEDDAE20F02EBA8
:1035800043036400EFE7474BF60F03EBC60696E8EC
:103590000300A3E71546744538BF02F1FF35002D3F
:1035A000B4BF1D46CEEB040455EA0403EBD0404AF9
:1035B000954208DCE30F03EB4505954207F1FF3721
:1035C0004FEA4404F6DD394B9F424EDA374AD21BAC
:1035D000142A54DCC2F12003D44005FA03F3234338
:1035E00045FA02F242EA0601184677E72F4C641AC0
:1035F0001F2C2BDCC4F1200308FA04F82AFA03F389
:1036000043EA08030AFA04F49DE72848C01B1F2870
:1036100015DCC0F1200209FA00F52CFA02F215437C
:103620000CFA00FE96E74FEAC823002B1F497FF7EC
:103630006DAF5B00002B01F1FF31FADC66E71D4D39
:103640004FF0000EED1B0CFA05F583E7194B002433
:103650005B1A0AFA03F376E7144F4FEAC9235B00BB
:10366000002B07F1FF37FADC66E7A5F580152E433E
:1036700007F2FF3746EA0753204619462EE71F2A6E
:1036800007DCC2F12003D4409D4045EA04033246E2
:10369000A8E7084B3246DB1B45FA03F3A2E700BF5D
:1036A000FFFFEF7FF8720808EDFBFFFF02FCFFFF52
:1036B000FFFF0F00E2FBFFFF0000F07F00207047DC
:1036C00081F0004102E000BF83F0004330B54FEAD3
:1036D00041044FEA430594EA050F08BF90EA020F40
:1036E0001FBF54EA000C55EA020C7FEA645C7FEAD3
:1036F000655C00F0E2804FEA5454D4EB5555B8BFF6
:103700006D420CDD2C4480EA020281EA030382EA66
:10371000000083EA010180EA020281EA0303362DF8
:1037200088BF30BD11F0004F4FEA01314FF4801CCB
:103730004CEA113102D0404261EB410113F0004FDD
:103740004FEA03334CEA133302D0524263EB430394
:1037500094EA050F00F0A780A4F10104D5F1200E32
:103760000DDB02FA0EFC22FA05F2801841F100018D
:1037700003FA0EF2801843FA05F359410EE0A5F161
:1037800020050EF1200E012A03FA0EFC28BF4CF092
:10379000020C43FA05F3C01851EBE37101F0004548
:1037A00007D54FF0000EDCF1000C7EEB00006EEB55
:1037B0000101B1F5801F1BD3B1F5001F0CD34908DF
:1037C0005FEA30004FEA3C0C04F101044FEA445236
:1037D00012F5800F80F09A80BCF1004F08BF5FEABD
:1037E000500C50F1000041EB045141EA050130BD9D
:1037F0005FEA4C0C404141EB010111F4801FA4F140
:103800000104E9D191F0000F04BF01460020B1FA94
:1038100081F308BF2033A3F10B03B3F120020CDACC
:103820000C3208DD02F1140CC2F10C0201FA0CF0AA
:1038300021FA02F10CE002F11402D8BFC2F1200C0F
:1038400001FA02F120FA0CFCDCBF41EA0C019040C5
:10385000E41AA2BF01EB0451294330BD6FEA04040E
:103860001F3C1CDA0C340EDC04F11404C4F12002F9
:1038700020FA04F001FA02F340EA030021FA04F30B
:1038800045EA030130BDC4F10C04C4F1200220FA62
:1038900002F001FA04F340EA0300294630BD21FAA0
:1038A00004F0294630BD94F0000F83F4801306BF66
:1038B00081F480110134013D4EE77FEA645C18BF5A
:1038C0007FEA655C29D094EA050F08BF90EA020FF1
:1038D00005D054EA000C04BF1946104630BD91EAE9
:1038E000030F1EBF0021002030BD5FEA545C05D1EC
:1038F0004000494128BF41F0004130BD14F580042B
:103900003CBF01F5801130BD01F0004545F0FE419E
:1039100041F470014FF0000030BD7FEA645C1ABFD3
:10392000194610467FEA655C1CBF0B46024650EA0A
:10393000013406BF52EA033591EA030F41F4002136
:1039400030BD00BF90F0000F04BF0021704730B5BC
:103950004FF4806404F132044FF000054FF0000191
:1039600050E700BF90F0000F04BF0021704730B552
:103970004FF4806404F1320410F0004548BF404227
:103980004FF000013EE700BF42004FEAE2014FEA7C
:1039900031014FEA02701FBF12F07F4393F07F4F57
:1039A00081F06051704792F0000F14BF93F07F4F89
:1039B000704730B54FF4607401F0004521F00041CC
:1039C00020E700BF50EA010208BF704730B54FF052
:1039D00000050AE050EA010208BF704730B511F057
:1039E000004502D5404261EB41014FF4806404F18F
:1039F00032045FEA915C3FF4DCAE4FF003025FEA11
:103A0000DC0C18BF03325FEADC0C18BF033202EB98
:103A1000DC02C2F1200300FA03FC20FA02F001FAF2
:103A200003FE40EA0E0021FA02F11444C1E600BF91
:103A300070B54FF0FF0C4CF4E06C1CEA11541DBF44
:103A40001CEA135594EA0C0F95EA0C0F00F0DEF80F
:103A50002C4481EA030621EA4C5123EA4C5350EAF4
:103A6000013518BF52EA033541F4801143F4801345
:103A700038D0A0FB02CE4FF00005E1FB02E506F0D6
:103A80000042E0FB03E54FF00006E1FB03569CF02B
:103A9000000F18BF4EF0010EA4F1FF04B6F5007F31
:103AA00064F5407404D25FEA4E0E6D4146EB0606A3
:103AB00042EAC62141EA55514FEAC52040EA5E502C
:103AC0004FEACE2EB4F1FD0C88BFBCF5E06F1ED8D6
:103AD000BEF1004F08BF5FEA500E50F1000041EB0D
:103AE000045170BD06F0004646EA010140EA0200BA
:103AF00081EA0301B4EB5C04C2BFD4EB0C0541EADC
:103B0000045170BD41F480114FF0000E013C00F3F0
:103B1000AB8014F1360FDEBF002001F0004170BD14
:103B2000C4F10004203C35DA0C341BDC04F114042D
:103B3000C4F1200500FA05F320FA04F001FA05F2B9
:103B400040EA020001F0004221F0004110EBD37086
:103B500021FA04F642EB06015EEA430E08BF20EAB2
:103B6000D37070BDC4F10C04C4F1200500FA04F355
:103B700020FA05F001FA04F240EA020001F00041E7
:103B800010EBD37041F100015EEA430E08BF20EA5A
:103B9000D37070BDC4F1200500FA05F24EEA020EA2
:103BA00020FA04F301FA05F243EA020321FA04F0D1
:103BB00001F0004121FA04F220EA020000EBD37088
:103BC0005EEA430E08BF20EAD37070BD94F0000F88
:103BD0000FD101F00046400041EB010111F4801FBC
:103BE00008BF013CF7D041EA060195F0000F18BF6D
:103BF000704703F00046520043EB030313F4801FA9
:103C000008BF013DF7D043EA0603704794EA0C0F62
:103C10000CEA135518BF95EA0C0F0CD050EA410678
:103C200018BF52EA4306D1D181EA030101F00041F5
:103C30004FF0000070BD50EA410606BF104619461D
:103C400052EA430619D094EA0C0F02D150EA013629
:103C500013D195EA0C0F05D152EA03361CBF10466A
:103C600019460AD181EA030101F0004141F0FE4109
:103C700041F470014FF0000070BD41F0FE4141F48D
:103C8000780170BD70B54FF0FF0C4CF4E06C1CEA8D
:103C900011541DBF1CEA135594EA0C0F95EA0C0F42
:103CA00000F0A7F8A4EB050481EA030E52EA0335FD
:103CB0004FEA013100F088804FEA03334FF080551E
:103CC00045EA131343EA12634FEA022245EA11154B
:103CD00045EA10654FEA00260EF000419D4208BFFC
:103CE000964244F1FD0404F5407402D25B084FEAA9
:103CF0003202B61A65EB03055B084FEA32024FF455
:103D000080104FF4002CB6EB020E75EB030E22BFB1
:103D1000B61A754640EA0C005B084FEA3202B6EB71
:103D2000020E75EB030E22BFB61A754640EA5C0020
:103D30005B084FEA3202B6EB020E75EB030E22BFB0
:103D4000B61A754640EA9C005B084FEA3202B6EBB1
:103D5000020E75EB030E22BFB61A754640EADC0070
:103D600055EA060E18D04FEA051545EA16754FEAD2
:103D700006164FEAC30343EA52734FEAC2025FEAF0
:103D80001C1CC0D111F4801F0BD141EA00014FF07F
:103D900000004FF0004CB6E711F4801F04BF014350
:103DA0000020B4F1FD0C88BFBCF5E06F3FF6AFAE6C
:103DB000B5EB030C04BFB6EB020C5FEA500C50F1FC
:103DC000000041EB045170BD0EF0004E4EEA11317F
:103DD00014EB5C04C2BFD4EB0C0541EA045170BD86
:103DE00041F480114FF0000E013C90E645EA060ECA
:103DF0008DE60CEA135594EA0C0F08BF95EA0C0FF8
:103E00003FF43BAF94EA0C0F0AD150EA01347FF43F
:103E100034AF95EA0C0F7FF425AF104619462CE716
:103E200095EA0C0F06D152EA03353FF4FDAE104679
:103E3000194622E750EA410618BF52EA43067FF4CA
:103E4000C5AE50EA41047FF40DAF52EA43057FF45A
:103E5000EBAE12E74FF0FF3C06E000BF4FF0010C65
:103E600002E000BF4FF0010C4DF804CD4FEA410CC9
:103E70007FEA6C5C4FEA430C18BF7FEA6C5C1BD096
:103E800001B050EA410C0CBF52EA430C91EA030F17
:103E900002BF90EA020F0020704710F1000F91EA74
:103EA000030F58BF994208BF90422CBFD8176FEA42
:103EB000E37040F0010070474FEA410C7FEA6C5C10
:103EC00002D150EA013C07D14FEA430C7FEA6C5C17
:103ED000D6D152EA033CD3D05DF8040B704700BF43
:103EE0008446104662468C461946634600E000BF91
:103EF00001B5FFF7B7FF002848BF10F1000F01BD63
:103F00004DF808EDFFF7F4FF0CBF012000205DF82D
:103F100008FB00BF4DF808EDFFF7EAFF34BF0120B2
:103F200000205DF808FB00BF4DF808EDFFF7E0FF4B
:103F300094BF012000205DF808FB00BF4DF808ED9C
:103F4000FFF7CEFF94BF012000205DF808FB00BF03
:103F50004DF808EDFFF7C4FF34BF012000205DF8E5
:103F600008FB00BF4FEA410C7FEA6C5C02D150EACB
:103F7000013C0AD14FEA430C7FEA6C5C02D152EA61
:103F8000033C02D14FF0000070474FF00100704732
:103F90004FEA410212F5001215D211D56FF4787371
:103FA000B3EB625212D94FEAC12343F0004343EA14
:103FB000505311F0004F23FA02F018BF40427047EF
:103FC0004FF00000704750EA013005D111F0004079
:103FD00008BF6FF0004070474FF00000704700BF0F
:103FE0004A0011D212F5001211D20DD56FF4787378
:103FF000B3EB62520ED44FEAC12343F0004343EACD
:10400000505323FA02F070474FF00000704750EA17
:10401000013002D14FF0FF3070474FF00000704781
:104020004FEA4102B2F1E04324BFB3F5001CDCF1DA
:10403000FE5C0DD901F0004C4FEAC0024CEA507012
:10404000B2F1004F40EB830008BF20F00100704741
:1040500011F0804F21D113F13872BCBF01F0004044
:10406000704741F480114FEA5252C2F11802C2F176
:10407000200C10FA0CF320FA02F018BF40F00100F7
:104080004FEAC1234FEAD32303FA0CFC40EA0C00A9
:1040900023FA02F34FEA4303CCE77FEA625307D1E6
:1040A00050EA01331EBF4FF0FE4040F4400070471D
:1040B00001F0004040F0FE4040F40000704700BFB7
:1040C00080F0004002E000BF81F0004142001FBFCD
:1040D0005FEA410392EA030F7FEA226C7FEA236CD6
:1040E0006AD04FEA1262D2EB1363C1BFD2184140CB
:1040F00048404140B8BF5B42192B88BF704710F061
:10410000004F40F4000020F07F4018BF404211F003
:10411000004F41F4000121F07F4118BF494292EA6B
:10412000030F3FD0A2F1010241FA03FC10EB0C0097
:10413000C3F1200301FA03F100F0004302D5494224
:1041400060EB4000B0F5000F13D3B0F1807F06D3D1
:1041500040084FEA310102F10102FE2A51D2B1F1C9
:10416000004F40EBC25008BF20F0010040EA0300BE
:104170007047490040EB000010F4000FA2F101026B
:10418000EDD1B0FA80FCACF1080CB2EB0C0200FAF5
:104190000CF0AABF00EBC25052421843BCBFD04043
:1041A0001843704792F0000F81F4000106BF80F4BD
:1041B00000000132013BB5E74FEA41037FEA226C80
:1041C00018BF7FEA236C21D092EA030F04D092F04B
:1041D000000F08BF0846704790EA010F1CBF00207F
:1041E000704712F07F4F04D1400028BF40F00040DC
:1041F000704712F100723CBF00F50000704700F0FC
:10420000004343F0FE4040F4000070477FEA226222
:1042100016BF08467FEA23630146420206BF5FEAF3
:10422000412390EA010F40F4800070474FF00003F3
:1042300004E000BF10F0004348BF40425FEA000CBA
:1042400008BF704743F0964301464FF000001CE062
:1042500050EA010208BF70474FF000030AE000BFB8
:1042600050EA010208BF704711F0004302D54042F6
:1042700061EB41015FEA010C02BF84460146002068
:1042800043F0B64308BFA3F18053A3F50003BCFA83
:104290008CF2083AA3EBC25310DB01FA02FC634430
:1042A00000FA02FCC2F12002BCF1004F20FA02F237
:1042B00043EB020008BF20F00100704702F120022A
:1042C00001FA02FCC2F1200250EA4C0021FA02F28B
:1042D00043EB020008BF20EADC7070474FF0FF0C90
:1042E0001CEAD0521EBF1CEAD15392EA0C0F93EA8B
:1042F0000C0F6FD01A4480EA010C400218BF5FEA2D
:1043000041211ED04FF0006343EA501043EA51119F
:10431000A0FB01310CF00040B1F5000F3EBF490099
:1043200041EAD3715B0040EA010062F17F02FD2A9D
:104330001DD8B3F1004F40EBC25008BF20F0010080
:10434000704790F0000F0CF0004C08BF49024CEA97
:10435000502040EA51207F3AC2BFD2F1FF0340EA29
:10436000C250704740F400004FF00003013A5DDC9A
:1043700012F1190FDCBF00F000407047C2F10002DB
:10438000410021FA02F1C2F1200200FA02FC5FEAC8
:10439000310040F1000053EA4C0308BF20EADC7012
:1043A000704792F0000F00F0004C02BF400010F484
:1043B000000F013AF9D040EA0C0093F0000F01F031
:1043C000004C02BF490011F4000F013BF9D041EA53
:1043D0000C018FE70CEAD15392EA0C0F18BF93EA55
:1043E0000C0F0AD030F0004C18BF31F0004CD8D17F
:1043F00080EA010000F00040704790F0000F17BF06
:1044000090F0004F084691F0000F91F0004F14D04B
:1044100092EA0C0F01D142020FD193EA0C0F03D1A3
:104420004B0218BF084608D180EA010000F00040A6
:1044300040F0FE4040F40000704740F0FE4040F481
:10444000400070474FF0FF0C1CEAD0521EBF1CEA20
:10445000D15392EA0C0F93EA0C0F69D0A2EB03023E
:1044600080EA010C49024FEA402037D04FF08053D8
:1044700043EA111143EA10130CF000408B4238BF9D
:104480005B0042F17D024FF4000C8B4224BF5B1AAB
:1044900040EA0C00B3EB510F24BFA3EB510340EAF9
:1044A0005C00B3EB910F24BFA3EB910340EA9C00A7
:1044B000B3EBD10F24BFA3EBD10340EADC001B0117
:1044C00018BF5FEA1C1CE0D1FD2A3FF650AF8B42BB
:1044D00040EBC25008BF20F0010070470CF0004CC8
:1044E0004CEA50207F32C2BFD2F1FF0340EAC250F3
:1044F000704740F400004FF00003013A37E792F0B4
:10450000000F00F0004C02BF400010F4000F013A11
:10451000F9D040EA0C0093F0000F01F0004C02BF0C
:10452000490011F4000F013BF9D041EA0C0195E775
:104530000CEAD15392EA0C0F08D142027FF47DAF0E
:1045400093EA0C0F7FF470AF084676E793EA0C0FFE
:1045500004D14B023FF44CAF08466EE730F0004CFC
:1045600018BF31F0004CCAD130F000427FF45CAF8C
:1045700031F000437FF43CAF5FE700BF4FF0FF3CFA
:1045800006E000BF4FF0010C02E000BF4FF0010C4D
:104590004DF804CD4FEA40024FEA41037FEA226C16
:1045A00018BF7FEA236C11D001B052EA530C18BF38
:1045B00090EA010F58BFB2EB030088BFC81738BF9D
:1045C0006FEAE17018BF40F0010070477FEA226C8B
:1045D00002D15FEA402C05D17FEA236CE4D15FEA87
:1045E000412CE1D05DF8040B704700BF84460846BB
:1045F0006146FFE70FB5FFF7C9FF002848BF10F17C
:10460000000F0FBD4DF808EDFFF7F4FF0CBF0120C0
:1046100000205DF808FB00BF4DF808EDFFF7EAFF4A
:1046200034BF012000205DF808FB00BF4DF808ED05
:10463000FFF7E0FF94BF012000205DF808FB00BFFA
:104640004DF808EDFFF7D2FF94BF012000205DF880
:1046500008FB00BF4DF808EDFFF7C8FF34BF01208D
:1046600000205DF808FB00BF4FEA4002B2F1FE4FA8
:104670000FD34FF09E03B3EB12620DD94FEA002324
:1046800043F0004310F0004F23FA02F018BF4042FD
:1046900070474FF00000704712F1610F01D14202E4
:1046A00005D110F0004008BF6FF0004070474FF098
:1046B0000000704742000ED2B2F1FE4F0BD34FF014
:1046C0009E03B3EB126209D44FEA002343F0004388
:1046D00023FA02F070474FF00000704712F1610FAB
:1046E00001D1420202D14FF0FF3070474FF000007D
:1046F000704700BF002100F0F7BF0A22002101F03F
:1047000081B80A22002101F07DB8000010B5054CE7
:1047100013462CB10A4601460220AFF3008010BDBB
:10472000204610BD0000000038B5074B05461C6848
:10473000E36B1BB92420FDF78DF9E063E16B28469C
:10474000BDE8384000F002B8BC0100202DE9F0417E
:104750000C46804601F07AFE21460746404601F0AD
:1047600079FE4669044606F26C76B30705D16422E9
:1047700096FBF2F302FB13634BB94FF4C87596FB3B
:10478000F5F305FB1365B5FA85F35B0900E001233A
:104790005F4A302505FB032501F06EF901F06EF943
:1047A0005C4B1B68F3B17B689E4205D13968D8F831
:1047B0000030FA6941B90AE0304601F0B5F8002846
:1047C000F4D14FF0FF330DE0934208DB01E0934258
:1047D00007DABA6B9342ACBF0023012302E0002347
:1047E00000E001232362236A3C20012B0CBFF96BFC
:1047F000396A4FF4616391FBF3F603FB161393FBE5
:10480000F0F200FB123061682368891AA2681B1A53
:10481000921B3B2B23606160A26003DD013161606C
:104820003C3B04E0002B03DA013961603C33236038
:1048300063683B2B03DD0132A2603C3B04E0002BAC
:1048400003DA013AA2603C336360A368172B22DDD0
:10485000E269183B0132E261A269A3600132062AD3
:10486000C8BF0022A261E26823690132E26055F804
:1048700023108A4246DD01330C2B08BF6369A2EB8B
:104880000102E26005BF013300222361226104BFFF
:104890006361E26136E0002B34DAE2691833013AF1
:1048A000E261A269A360013A48BF0622A261E26800
:1048B000013AE26032BB2369013B01D423611DE070
:1048C0000B23236163695A1E12F0030F626103F226
:1048D0006B7305D1642193FBF1F201FB12324AB9EB
:1048E0004FF4C87193FBF1F201FB1233B3FA83F377
:1048F0005B0900E0012303F5B673E361236955F812
:104900002330E36001F0B9F82046BDE8F08100BF34
:1049100074740808340A002000487047C001002061
:1049200010B5431E0A44914204D011F8014B03F81C
:10493000014FF8E710BD03460244934202D003F84A
:10494000011BFAE77047000038B5124B05461C689A
:10495000A36BD3B91820FDF77DF843F20E33A063A3
:1049600003804AF6CD33438041F2342383804EF2F4
:104970006D63C3804DF6EC630381052343810B23F4
:10498000838101220023C0E90423A36B00221D615F
:104990005A6138BDBC010020C9B2034610F8012B92
:1049A0001AB19142F9D11846704700290CBF184638
:1049B0000020704710F8012B11F8013B012A28BF95
:1049C0009A42F7D0D01A7047034611F8012B03F82A
:1049D000012B002AF9D17047024B0146186800F0FC
:1049E00003B800BFBC01002070B5064608460C465F
:1049F00000F00DF8451C29463046FDF75BF80646E9
:104A000018B12A462146FFF78BFF304670BD03469A
:104A100013F8012B002AFBD1181A0138704730B562
:104A200082B1451E013915F8013F11F8014FA3422B
:104A300006D1EC431444E04201D0002BF3D11C46D4
:104A4000181B30BD104630BD034610B542B111F8F9
:104A5000014B013A03F8014B002CF7D11A4400E056
:104A600010BD934202D003F8014BFAE710BDF0B538
:104A7000037863B90B78002B18BF0020F0BD15F840
:104A8000012F62B114F8017F30469742F7D00346F8
:104A9000461C007810B14D1E5C1EF0E7F0BD1846B4
:104AA000F0BD2DE9F0410F46904602F02FF8044684
:104AB0000D46B8F1000F11D0C7F30A53C3F16B03D1
:104AC000002B0BDD1B0503F17F55002405F5401578
:104AD00022462B46FEF7ACFFBDE8F0812046294672
:104AE000BDE8F081000000002DE9F04F82460C4641
:104AF0009DB00023139218934FF000084FF0000967
:104B00001791179B1A780D2A05D8092A13D2002A63
:104B100000F0AD8112E02B2A04D02D2A04D0202AE7
:104B20000CD108E0002200E001220C925A1C1792DE
:104B30005B782BB99BE101331793E2E700230C93D9
:104B4000179D2B78302B5CD16B78582B01D0782BAC
:104B50004CD10C9BA84A019318AB009317A919AB31
:104B6000504601F05CF910F00706044600F0858518
:104B7000062E05D10135002317950C9300F07DBD5D
:104B8000189A3AB135211AA802F0A7F81899504698
:104B900001F02BFD062E22D8DFE806F0040D0818E0
:104BA0001D0D04004FF00009C84618E0DDF86880CC
:104BB000DDF86C9013E01B9B199A23F4801302F22A
:104BC0003342DDF8688043EA025908E0DFF82C92AE
:104BD0004FF0000803E06FF000494FF0FF38210765
:104BE00040F14B8549F0004900F047BD179B5A1C26
:104BF00017925B78302BF9D0002B00F03E85012313
:104C000000E000230593179B0A22069300239B468E
:104C100002930493179D2E78A6F13003D9B2092987
:104C200011D8BBF1080FD5BF0499029902FB0133DB
:104C300002FB013305F10105D4BF049302930BF18C
:104C4000010B1795E6E75046FFF766FE07685046EA
:104C5000FFF762FE0068FFF7DAFE39460246284693
:104C6000FFF7DDFE074628B1002033465D460246C9
:104C700001465AE05046FFF74FFE0068FFF7C7FEB7
:104C8000179B1A1817921B5CBBF1000F45D15846B1
:104C9000302B05D1179B01305A1C17925B78F7E730
:104CA000A3F13102082A46D8179A0692024600203C
:104CB0000546303B00F1010129D00A44294605EBA5
:104CC000000C0A2661450FD0013101F1FF3EBEF113
:104CD000080F03DC049F77430497F3E71029DEBF36
:104CE000029F77430297EDE72844082800F1010569
:104CF00005DC04980A2101FB0033049306E0102D23
:104D0000DFBF02980A2101FB003302930021179BA9
:104D1000581C17905B78084602E05D4638463A46D4
:104D2000A3F130010929C4D90121652B01D0452BFC
:104D30004FD16DB904E0652B40F0AD840022012114
:104D400028B9059B002B00F09280054600E0002565
:104D5000179C631C179363782B2B06D02D2B02D046
:104D60000026039606E0012300E000230393A31C22
:104D70001793A378A3F13006092E29D8302B04D13C
:104D8000179B5E1C17965B78F8E7A3F13106082E97
:104D90001FD8A3F1300E179B1F46179B5E1C17965A
:104DA0005B78A3F1300CBCF1090F05D80A2606FB8D
:104DB0000E3EAEF1300EF0E7F61B082E44F61F66ED
:104DC00002DC7645A8BF7646039F1FB1764201E01C
:104DD00017940026002D52D1002840F04E84059AE9
:104DE000002A40F04A84002941D14E2B20D007DC14
:104DF000492B0AD03BE000BFD47408080000F07FC4
:104E0000692B02D06E2B13D031E0AA4917A801F00C
:104E100037FA60B3179BA849013B17A8179301F015
:104E20002FFA10B9179B01331793DFF8A8921AE0F5
:104E3000A24917A801F024FAC8B1179B1B78282BA8
:104E40000FD11AAA9E4917A801F02DFA052808D1FA
:104E50001B9BDDF8688043F0FF4949F4E00900F04E
:104E60000CBCDFF874924FF0000800F006BC139BF6
:104E70001794002B00F00C8400230C93FFE32C46C6
:104E8000BBF1000F08BFAB460498102DA8BF10243B
:104E9000B71AFEF757FD092C8046894613DD894B6A
:104EA00003EBC40353E91223FEF7C2FD80460298C8
:104EB0008946FEF747FD02460B4640464946FEF747
:104EC00005FC804689460F2D33DC002F00F0D5838A
:104ED00022DD162F07DC7B4D424605EBC7014B4612
:104EE000D1E9000113E0C5F125039F4221DC754C97
:104EF000C5F10F0504EBC5017D1B4246D1E9000158
:104F00004B4604EBC504FEF793FDD4E90023FEF7FE
:104F10008FFD80468946B0E317F1160F09DB694D16
:104F20004046A5EBC703D3E900234946FEF7AAFE96
:104F3000EFE72C1B3C44002C5DDD14F00F010AD080
:104F4000604B424603EBC101D1E900014B46FEF73D
:104F50006FFD8046894634F00F0400F0C180B4F53F
:104F60009A7F0FDD4FF0000BCDF808B0CDF814B0EC
:104F7000CDF810B02223CAF80030DFF858914FF076
:104F8000000889E14046494600234F4E2411029310
:104F9000012C0CDDE20704D5D6E90023FEF748FD1D
:104FA0000123029A6410013202920836F0E70BB135
:104FB00080468946444B029AA9F1547903EBC20119
:104FC000D1E9000142464B46FEF732FD21F0004395
:104FD00089460A461B0D3D491B058B428046C1D8B8
:104FE000A1F580118B4286BFDFF8F0904FF0FF38BB
:104FF00002F1547974E073D0644214F00F020AD0C5
:10500000304B404603EBC2034946D3E90023FEF789
:1050100039FE80468946241162D01F2C08DD4FF0EE
:10502000000BCDF808B0CDF814B0CDF810B02CE1DD
:105030004046494614F0100F0CBF00236A23244E4B
:1050400003930023002C09DDE20704D5D6E90023F1
:10505000FEF7EEFC012364100836F3E70BB180463F
:105060008946039BEBB1C9F30A53C3F16B03002BD1
:10507000494616DD1F2B0EDD342BDEBF203B4FF0E3
:10508000FF3202FA03F34FF00008CCBF4FF05C7917
:1050900003EA010905E04FF0FF3202FA03F303EAE5
:1050A00008080022002340464946FEF729FF002851
:1050B000B5D117E0E8740808EB740808F174080823
:1050C000F474080870750808387608080000A07C99
:1050D000087508080000F07F0000F8FFFFFFEF7F71
:1050E00000230393049B5A46009306992B4650468F
:1050F00001F0CDFA059000283FF434AF002FC7F13E
:105100000003A8BF00230D934FF0000B27EAE773BD
:105110001293CDF808B0059B5046596801F030FA5B
:10512000049000283FF426AF059B0C301A6903F168
:105130000C0102329200FFF7F3FB1AAB019319AB9B
:10514000009342464B465046CDE9088901F04FFD99
:10515000189000283FF40EAF0121504601F022FBC9
:10516000029000283FF406AF199B0399002BACBFB7
:105170000D9A129A1A9CACBFD618D21AA3EB01034F
:105180002344B14903F1FF33ACBF129A0D9E8B4209
:10519000C4F1360480F28580C91A1F29C8BFAB4DFF
:1051A0004FF00107D4BF07FA01F3ED1AA4EB010495
:1051B000D9BF0793002507FA05F507973719039B11
:1051C000BE4214441C443346A8BF3B46A342A8BF7A
:1051D0002346002BC2BFFF1AE41AF61A0D9B002BC0
:1051E00063D1002F7ADC129B002B40F08180002CD1
:1051F00000F38880002E00F38F80049A189950469F
:1052000001F025FC834600283FF4B4AEC3680024B7
:10521000C4600299069301F0FEFBA04280F28B80ED
:10522000069B002B40F00282B8F1000F40F0FE8197
:10523000C9F31303002B40F0F98129F000431B0D43
:105240001B05B3F1D66F40F2F181DBF81430002B6F
:105250006CD059460122504601F08CFB02998346DE
:1052600001F0D9FB002840F3E18129F00043039AC3
:105270001B0D1B05002A00F08D80B3F1D66F00F3E3
:105280008980B3F15C7F00F3D38122234FF00008C3
:105290004FF00009CAF80030059B002B40F0D9817F
:1052A000EBE101230025079388E71A46029950464F
:1052B00001F012FB029000283FF45CAE0146189A00
:1052C000504601F078FA069000283FF453AE189942
:1052D000504601F08AF9069B189382E73A461899DE
:1052E000504601F047FB189000287FF47CAF41E660
:1052F000129A0499504601F0EFFA049000287FF4C6
:1053000076AF37E622460499504601F033FB04900D
:1053100000287FF46FAF2DE632460299504601F027
:1053200029FB029000287FF468AF23E6DBF81030F9
:10533000012B8EDC7AE161D1069AC9F3130322B303
:1053400043494A468B422ED1039B414663B1414BB0
:105350001340B3F1D46F07D81B0DC3F16B034FF0AB
:10536000FF3000FA03F301E04FF0FF338B421AD114
:1053700039498A4202D101333FF4FCAD354B4FF03D
:105380000008134003F5801950E163B9B8F1000F2C
:1053900009D16AE7A3F580136FEA13594FF0FF387C
:1053A0006FEA095942E115B115EA090F02E0079BBE
:1053B00013EA080F00F03A81069B039A40464946DB
:1053C00053B1FFF76EFB02460B46DDE90801FEF71D
:1053D0007DF98046894629E1FFF763FB02460B46CB
:1053E000DDE90801FEF770F90022002380468946B6
:1053F000FEF786FD00287FF448AF17E10299584672
:1054000001F043FC00224FF0804306460F46FEF7B2
:105410008BFD00283FD0069B13B100260F4F10E0F4
:10542000B8F1000F03D1C9F313033BB91AE0B8F187
:10543000010F03D1B9F1000F3FF427AF084F002649
:105440000024064D3CE000BF02FCFFFFE2FBFFFF33
:10545000FFFF0F000000F07FFFFFEF7F0000F03F35
:105460000000F0BF00229A4B30463946FEF752FD4D
:1054700040B90022974B30463946FEF7D9FA044628
:105480000D4601E0069C934D05F1004314941593DD
:10549000DDE9146714E08F4B002230463946FEF7F1
:1054A000C7FA069B04460D4623B901F100430E904E
:1054B0000F9303E002460B46CDE90E23DDE90E67AC
:1054C00029F000431B0D1B050793079A824B9A4254
:1054D0002BD1DDE90823A9F1547940464946CDE9AD
:1054E0000A2301F013FB02460B4630463946FEF70D
:1054F0009FFA42464B46FEF7E9F821F000431B0DA8
:10550000764A1B05934280460CD9754B0B9A9A42FA
:1055100003D10A9B01333FF42DADDFF8C4914FF066
:10552000FF3872E001F1547939E0039B3BB3079BEC
:10553000B3F1D46F23D85EA3D3E9002320462946D4
:10554000FEF7F2FCB8B129462046FEF749FD0028D7
:1055500008BF0120FEF7F6F9069B04460D4623B965
:1055600001F100431090119303E002460B46CDE990
:105570001023DDE91067079A07F1D6639F1ADDE96A
:10558000080101F0C3FA02460B4630463946FEF7E1
:105590004FFADDE90823FEF799F880468946039B18
:1055A0009BBB29F000431B0D079A1B059A424E46F0
:1055B0002BD129462046FEF7EBFCFEF7D3F90B462C
:1055C000024629462046FEF77FF8069B04460D4614
:1055D0002BB9B8F1000F02D1C9F313067EB136A37F
:1055E000D3E9002320462946FEF794FC88BB34A368
:1055F000D3E9002320462946FEF7AAFC04E032A3A3
:10560000D3E90023FEF786FC18BB1899504600F03A
:10561000ECFF0499504600F0E8FF0299504600F074
:10562000E4FF5946504600F0E0FF74E5039B83B168
:105630002C4B40460B9300230A934946DDE90A238D
:10564000FEF7F6F98046894619B910B92223CAF83F
:1056500000301899504600F0C8FF0499504600F0F9
:10566000C4FF0299504600F0C0FF0599504600F073
:10567000BCFF5946504600F0B8FF139B13B1179B6F
:10568000139A13600C9B1BB1424609F1004307E0DB
:1056900042464B4604E000252A460121FFF747BB5E
:1056A000104619461DB0BDE8F08F00BFAFF3008073
:1056B0000000C0FFFFFFDF419535A094FFFFDF3FF3
:1056C00035E5AF350000E03F9535A094FFFFCF3FB3
:1056D0000000F03F0000E03F0000E07FFFFF9F7C04
:1056E000FFFFEF7F00005039024B0A460146186861
:1056F000FFF7FAB9BC0100202DE9F0470F468046BC
:105700003F48D0F800903D4615F8014B09EB0400E6
:10571000407800F0080000F0FF0608B12F46F2E7DD
:105720002D2C03D1BD1C7C78012603E02B2C04BF5B
:105730007C78BD1C13B1102B0AD15BE0302C57D103
:10574000287800F0DF0058284DD16C7810230235FE
:10575000002E14BF4FF0004C6FF0004CBCFBF3FA6E
:105760000027384603FB1ACC09EB040E9EF801E033
:105770001EF0040F01D0303C0BE01EF0030E1BD0D6
:10578000BEF1010F0CBF4FF0370E4FF0570ECEEBAE
:105790000404A34210DDB7F1FF3F0AD0504506D8FC
:1057A00001D1644503DC03FB0040012701E04FF019
:1057B000FF3715F8014BD7E77B1C0CD1002E4FF0BB
:1057C000220314BF4FF000406FF00040C8F80030D3
:1057D0002AB9BDE8F08706B1404272B107B1691E2F
:1057E0001160BDE8F0873024002BB1D10823AFE76A
:1057F0000A23ADE7302CA3D0AAE7BDE8F08700BFAD
:105800005801002013460A46014602480068FFF787
:1058100073BF00BFBC0100202DE9F0470E46804653
:105820003B48D0F80090354615F8014B09EB0400D1
:10583000407800F0080000F0FF0708B12E46F2E7BC
:105840002D2C03D1B51C7478012703E02B2C04BF49
:105850007478B51C13B1102B0AD153E0302C4FD102
:10586000287800F0DF00582845D16C7810230235E5
:105870004FF0FF3CBCFBF3FC03FB0CFA00266FEA85
:105880000A0A304609EB040E9EF801E01EF0040FF0
:1058900001D0303C0BE01EF0030E1AD0BEF1010F18
:1058A0000CBF4FF0370E4FF0570ECEEB0404A3425F
:1058B0000FDD002E08DB604506D801D1544503DC1E
:1058C00003FB0040012601E04FF0FF3615F8014BC5
:1058D000D8E7002E07DA2223C8F800304FF0FF3057
:1058E0002AB9BDE8F08707B1404272B106B1691E1E
:1058F0001160BDE8F0873024002BB9D10823B7E749
:105900000A23B5E7302CABD0B2E7BDE8F08700BF83
:105910005801002013460A46014602480068FFF776
:105920007BBF00BFBC0100202DE9F74F044600F00B
:105930008DFD40F2B1739C4240F3968040F26D15AC
:105940006FF4F663E318A4F2B2729B1005FB023504
:10595000A4F26D726FF0630392FBF3F36FF4C8620D
:105960002B44A5184FF4C87294FBF2F795FBF2F59F
:1059700002FB17471D44642394FBF3F6B7FA87FE36
:10598000014603FB164600F13803019304F00303BC
:1059900044604FEA5E1E00934FF0070C0B7A4A2BCF
:1059A0000ED14B69009AEC1802B906B927B93B2B06
:1059B000D4BF0023012300E000232344013B3FE048
:1059C000442B02D14B692B443AE0009B2BB9002EAB
:1059D0000CBFF0464FF0010800E0F046A946244B0A
:1059E000302202FB0838CC68A8F1040A0123A34244
:1059F00004DA5AF804BF0133D944F8E709F1040383
:105A000093FBFCFBCBEBCB0ACAEB030A4B69012CE3
:105A1000B8BF0124B3EB0A0A0B6904F1804403F117
:105A2000FF3304F1FF3448BF0AF1070AC3EBC30395
:105A300058F824405344A34201DB073BFBE74B44A7
:105A40008C690C4A02FB03430C6A234441F81C3F57
:105A5000019B9942A2D1C369826B9342ACBF0023E0
:105A600001230360012000E0002003B0BDE8F08FB7
:105A7000747408088051010070477047014B186822
:105A800000F002B8BC0100202DE9F04F8DB00746B0
:105A900000F0DCFCB0490446384600F0CFFCAF4EC5
:105AA000054660B9AE4BAF4A1860AF4B1860AF4BBC
:105AB00030681A605A60FBF7D5FF356048E13168FD
:105AC00079B93068FBF7CEFF2846FEF7A0FF411CEE
:105AD0003846FBF7EFFF306048B12946FEF774FF08
